S00C00004C4142352E7372656314
S11300000C9434000C9446000C9446000C94460066
S11300100C9446000C9446000C9446000C94460044
S11300200C9446000C9446000C9446000C94460034
S11300300C9446000C9446000C9446000C94460024
S11300400C94BC000C9446000C9446000C9446009E
S11300500C9446000C94FD000C9446000C9446004D
S11300600C9446000C94460011241FBECFEFD8E038
S1130070DEBFCDBF21E0A0E0B1E001C01D92A530FC
S1130080B207E1F70E9471000C944D010C9400003A
S1130090ECE7F0E01082808180628083808180645C
S11300A08083AEE7B0E08C9181608C938081866020
S11300B08083EAE7F0E01082808188608083808119
S11300C087608083808180688083089585B585609A
S11300D085BD84E686BDEEE6F0E0808181608083A4
S11300E00895F8940E94480060E074E080E00E9463
S11300F0280184B1886084B98AB180618AB9E0EB4F
S1130100F0E01082A1EBB0E01C92808180688083D3
S11301108081836080838C9187608C930E946600C9
S11301207894809100018F5F809300018091040195
S11301302BEA829F812D11248695869590E09093D9
S113014089008093880080910301829F812D11246E
S1130150869586958093B30080910001811104C037
S11301608BB18F7E8BB9DDCF909102018913D9CFEA
S11301708BB180618BB9D5CF1F920F920FB60F92BE
S113018011248F93EF93FF938091010181110CC08F
S113019081E080930101ECE7F0E08081887F808337
S11301A080818660808317C0813061F482E080930F
S11301B00101ECE7F0E08081887F808380818760A3
S11301C0808309C0823039F410920101ECE7F0E039
S11301D08081887F8083EAE7F0E080818064808387
S11301E084E686BD85B3816085BBFF91EF918F91D5
S11301F00F900FBE0F901F9018951F920F920FB67D
S11302000F9211248F93EF93FF9380910101811139
S113021005C080917900809304010DC0813029F4D8
S1130220809179008093030106C0823021F480918B
S1130230790080930201EAE7F0E0808180618083A5
S1130240FF91EF918F910F900FBE0F901F90189513
S113025094B1926094B91092800010928100882326
S113026031F0E0E8F0E08081806C808305C0E0E854
S1130270F0E0808180688083E0E8F0E08081816044
S11302808083E1E8F0E080818860808361157440B8
S111029019F48081856080830895F894FFCF6F
S9030000FC
